{
  "_format": "hh-sol-artifact-1",
  "contractName": "OathToMeliorism",
  "sourceName": "contracts/OathToMeliorism.sol",
  "abi": [
    {
      "inputs": [],
      "stateMutability": "nonpayable",
      "type": "constructor"
    },
    {
      "anonymous": false,
      "inputs": [
        {
          "indexed": true,
          "internalType": "address",
          "name": "owner",
          "type": "address"
        },
        {
          "indexed": true,
          "internalType": "address",
          "name": "approved",
          "type": "address"
        },
        {
          "indexed": true,
          "internalType": "uint256",
          "name": "tokenId",
          "type": "uint256"
        }
      ],
      "name": "Approval",
      "type": "event"
    },
    {
      "anonymous": false,
      "inputs": [
        {
          "indexed": true,
          "internalType": "address",
          "name": "owner",
          "type": "address"
        },
        {
          "indexed": true,
          "internalType": "address",
          "name": "operator",
          "type": "address"
        },
        {
          "indexed": false,
          "internalType": "bool",
          "name": "approved",
          "type": "bool"
        }
      ],
      "name": "ApprovalForAll",
      "type": "event"
    },
    {
      "anonymous": false,
      "inputs": [
        {
          "indexed": false,
          "internalType": "uint256",
          "name": "_fromTokenId",
          "type": "uint256"
        },
        {
          "indexed": false,
          "internalType": "uint256",
          "name": "_toTokenId",
          "type": "uint256"
        }
      ],
      "name": "BatchMetadataUpdate",
      "type": "event"
    },
    {
      "anonymous": false,
      "inputs": [
        {
          "indexed": false,
          "internalType": "uint256",
          "name": "_tokenId",
          "type": "uint256"
        }
      ],
      "name": "MetadataUpdate",
      "type": "event"
    },
    {
      "anonymous": false,
      "inputs": [
        {
          "indexed": true,
          "internalType": "address",
          "name": "previousOwner",
          "type": "address"
        },
        {
          "indexed": true,
          "internalType": "address",
          "name": "newOwner",
          "type": "address"
        }
      ],
      "name": "OwnershipTransferred",
      "type": "event"
    },
    {
      "anonymous": false,
      "inputs": [
        {
          "indexed": false,
          "internalType": "uint256",
          "name": "token_ID",
          "type": "uint256"
        },
        {
          "indexed": false,
          "internalType": "address",
          "name": "user_address",
          "type": "address"
        }
      ],
      "name": "PrimaryTokenAssigned",
      "type": "event"
    },
    {
      "anonymous": false,
      "inputs": [
        {
          "indexed": false,
          "internalType": "uint256",
          "name": "task_ID",
          "type": "uint256"
        },
        {
          "indexed": false,
          "internalType": "string",
          "name": "task_tags",
          "type": "string"
        },
        {
          "indexed": false,
          "internalType": "bytes32",
          "name": "task_hash",
          "type": "bytes32"
        },
        {
          "indexed": false,
          "internalType": "uint256",
          "name": "task_timestamp",
          "type": "uint256"
        },
        {
          "indexed": false,
          "internalType": "address",
          "name": "completer_address",
          "type": "address"
        }
      ],
      "name": "TaskCompleted",
      "type": "event"
    },
    {
      "anonymous": false,
      "inputs": [
        {
          "indexed": false,
          "internalType": "uint256",
          "name": "task_count",
          "type": "uint256"
        },
        {
          "indexed": false,
          "internalType": "uint256",
          "name": "task_ID",
          "type": "uint256"
        },
        {
          "indexed": false,
          "internalType": "string",
          "name": "task_tags",
          "type": "string"
        },
        {
          "indexed": false,
          "internalType": "string",
          "name": "task_metadata_URI",
          "type": "string"
        },
        {
          "indexed": false,
          "internalType": "bytes32",
          "name": "task_hash",
          "type": "bytes32"
        }
      ],
      "name": "TaskCreated",
      "type": "event"
    },
    {
      "anonymous": false,
      "inputs": [
        {
          "indexed": true,
          "internalType": "address",
          "name": "from",
          "type": "address"
        },
        {
          "indexed": true,
          "internalType": "address",
          "name": "to",
          "type": "address"
        },
        {
          "indexed": true,
          "internalType": "uint256",
          "name": "tokenId",
          "type": "uint256"
        }
      ],
      "name": "Transfer",
      "type": "event"
    },
    {
      "anonymous": false,
      "inputs": [
        {
          "indexed": false,
          "internalType": "address",
          "name": "user_address",
          "type": "address"
        },
        {
          "indexed": false,
          "internalType": "uint16",
          "name": "whitelist_tier",
          "type": "uint16"
        }
      ],
      "name": "WhitelistAssigned",
      "type": "event"
    },
    {
      "inputs": [
        {
          "internalType": "uint256",
          "name": "task_ID",
          "type": "uint256"
        },
        {
          "internalType": "string",
          "name": "task_tags",
          "type": "string"
        },
        {
          "internalType": "string",
          "name": "task_metadata_URI",
          "type": "string"
        }
      ],
      "name": "__createTask",
      "outputs": [
        {
          "internalType": "bytes32",
          "name": "task_hash",
          "type": "bytes32"
        }
      ],
      "stateMutability": "nonpayable",
      "type": "function"
    },
    {
      "inputs": [
        {
          "internalType": "string",
          "name": "token_URI",
          "type": "string"
        }
      ],
      "name": "__mintFree",
      "outputs": [
        {
          "internalType": "uint256",
          "name": "token_ID",
          "type": "uint256"
        }
      ],
      "stateMutability": "nonpayable",
      "type": "function"
    },
    {
      "inputs": [
        {
          "internalType": "string",
          "name": "new_collectionInfoURI",
          "type": "string"
        }
      ],
      "name": "__setContractURI",
      "outputs": [
        {
          "internalType": "string",
          "name": "old_collectionInfoURI",
          "type": "string"
        }
      ],
      "stateMutability": "nonpayable",
      "type": "function"
    },
    {
      "inputs": [
        {
          "internalType": "uint256",
          "name": "new_max_supply",
          "type": "uint256"
        }
      ],
      "name": "__setMaxSupply",
      "outputs": [
        {
          "internalType": "uint256",
          "name": "old_max_supply",
          "type": "uint256"
        }
      ],
      "stateMutability": "nonpayable",
      "type": "function"
    },
    {
      "inputs": [
        {
          "internalType": "uint256",
          "name": "new_price",
          "type": "uint256"
        },
        {
          "internalType": "uint16",
          "name": "whitelist_tier",
          "type": "uint16"
        }
      ],
      "name": "__setMintPrice",
      "outputs": [
        {
          "internalType": "uint256",
          "name": "old_price",
          "type": "uint256"
        }
      ],
      "stateMutability": "nonpayable",
      "type": "function"
    },
    {
      "inputs": [
        {
          "internalType": "uint256",
          "name": "token_ID",
          "type": "uint256"
        },
        {
          "internalType": "address",
          "name": "user_address",
          "type": "address"
        }
      ],
      "name": "__setPrimaryTokenID",
      "outputs": [],
      "stateMutability": "nonpayable",
      "type": "function"
    },
    {
      "inputs": [
        {
          "internalType": "uint256",
          "name": "token_ID",
          "type": "uint256"
        },
        {
          "internalType": "string",
          "name": "token_URI",
          "type": "string"
        }
      ],
      "name": "__setTokenURI",
      "outputs": [
        {
          "internalType": "string",
          "name": "old_token_URI",
          "type": "string"
        }
      ],
      "stateMutability": "nonpayable",
      "type": "function"
    },
    {
      "inputs": [],
      "name": "_maxSupply",
      "outputs": [
        {
          "internalType": "uint256",
          "name": "",
          "type": "uint256"
        }
      ],
      "stateMutability": "view",
      "type": "function"
    },
    {
      "inputs": [
        {
          "internalType": "address",
          "name": "to",
          "type": "address"
        },
        {
          "internalType": "uint256",
          "name": "tokenId",
          "type": "uint256"
        }
      ],
      "name": "approve",
      "outputs": [],
      "stateMutability": "nonpayable",
      "type": "function"
    },
    {
      "inputs": [
        {
          "internalType": "address",
          "name": "owner",
          "type": "address"
        }
      ],
      "name": "balanceOf",
      "outputs": [
        {
          "internalType": "uint256",
          "name": "",
          "type": "uint256"
        }
      ],
      "stateMutability": "view",
      "type": "function"
    },
    {
      "inputs": [
        {
          "internalType": "uint256",
          "name": "",
          "type": "uint256"
        }
      ],
      "name": "characters",
      "outputs": [
        {
          "internalType": "string",
          "name": "metadata_URI",
          "type": "string"
        },
        {
          "internalType": "uint256",
          "name": "tasks_completed",
          "type": "uint256"
        }
      ],
      "stateMutability": "view",
      "type": "function"
    },
    {
      "inputs": [],
      "name": "collectionInfoURI",
      "outputs": [
        {
          "internalType": "string",
          "name": "",
          "type": "string"
        }
      ],
      "stateMutability": "view",
      "type": "function"
    },
    {
      "inputs": [
        {
          "internalType": "uint256",
          "name": "task_ID",
          "type": "uint256"
        },
        {
          "internalType": "string",
          "name": "task_tags",
          "type": "string"
        }
      ],
      "name": "completeTask",
      "outputs": [
        {
          "internalType": "bytes32",
          "name": "task_hash",
          "type": "bytes32"
        }
      ],
      "stateMutability": "nonpayable",
      "type": "function"
    },
    {
      "inputs": [],
      "name": "contractURI",
      "outputs": [
        {
          "internalType": "string",
          "name": "",
          "type": "string"
        }
      ],
      "stateMutability": "view",
      "type": "function"
    },
    {
      "inputs": [
        {
          "internalType": "uint256",
          "name": "tokenId",
          "type": "uint256"
        }
      ],
      "name": "getApproved",
      "outputs": [
        {
          "internalType": "address",
          "name": "",
          "type": "address"
        }
      ],
      "stateMutability": "view",
      "type": "function"
    },
    {
      "inputs": [
        {
          "internalType": "uint256",
          "name": "token_ID",
          "type": "uint256"
        }
      ],
      "name": "getCharacter",
      "outputs": [
        {
          "internalType": "string",
          "name": "",
          "type": "string"
        },
        {
          "internalType": "uint256",
          "name": "",
          "type": "uint256"
        },
        {
          "internalType": "uint256[]",
          "name": "",
          "type": "uint256[]"
        },
        {
          "internalType": "string[]",
          "name": "",
          "type": "string[]"
        },
        {
          "internalType": "bytes32[]",
          "name": "",
          "type": "bytes32[]"
        },
        {
          "internalType": "uint256[]",
          "name": "",
          "type": "uint256[]"
        },
        {
          "internalType": "address[]",
          "name": "",
          "type": "address[]"
        }
      ],
      "stateMutability": "view",
      "type": "function"
    },
    {
      "inputs": [],
      "name": "getMaxSupply",
      "outputs": [
        {
          "internalType": "uint256",
          "name": "",
          "type": "uint256"
        }
      ],
      "stateMutability": "view",
      "type": "function"
    },
    {
      "inputs": [
        {
          "internalType": "uint16",
          "name": "whitelist_tier",
          "type": "uint16"
        }
      ],
      "name": "getMintPrice",
      "outputs": [
        {
          "internalType": "uint256",
          "name": "",
          "type": "uint256"
        }
      ],
      "stateMutability": "view",
      "type": "function"
    },
    {
      "inputs": [
        {
          "internalType": "uint256",
          "name": "index",
          "type": "uint256"
        }
      ],
      "name": "getPrimaryHolderByIndex",
      "outputs": [
        {
          "internalType": "address",
          "name": "",
          "type": "address"
        }
      ],
      "stateMutability": "view",
      "type": "function"
    },
    {
      "inputs": [],
      "name": "getPrimaryHolderCount",
      "outputs": [
        {
          "internalType": "uint256",
          "name": "",
          "type": "uint256"
        }
      ],
      "stateMutability": "view",
      "type": "function"
    },
    {
      "inputs": [
        {
          "internalType": "address",
          "name": "user_address",
          "type": "address"
        }
      ],
      "name": "getPrimaryTokenID",
      "outputs": [
        {
          "internalType": "uint256",
          "name": "token_ID",
          "type": "uint256"
        }
      ],
      "stateMutability": "view",
      "type": "function"
    },
    {
      "inputs": [
        {
          "internalType": "address",
          "name": "user_address",
          "type": "address"
        }
      ],
      "name": "getPrimaryTokenURI",
      "outputs": [
        {
          "internalType": "string",
          "name": "_tokenURI",
          "type": "string"
        }
      ],
      "stateMutability": "view",
      "type": "function"
    },
    {
      "inputs": [
        {
          "internalType": "uint256",
          "name": "task_ID",
          "type": "uint256"
        },
        {
          "internalType": "string",
          "name": "task_tags",
          "type": "string"
        }
      ],
      "name": "getTask",
      "outputs": [
        {
          "internalType": "string",
          "name": "",
          "type": "string"
        },
        {
          "internalType": "bytes32",
          "name": "",
          "type": "bytes32"
        },
        {
          "internalType": "address[]",
          "name": "",
          "type": "address[]"
        },
        {
          "internalType": "uint256",
          "name": "",
          "type": "uint256"
        },
        {
          "internalType": "address",
          "name": "",
          "type": "address"
        }
      ],
      "stateMutability": "view",
      "type": "function"
    },
    {
      "inputs": [
        {
          "internalType": "uint256",
          "name": "task_ID",
          "type": "uint256"
        },
        {
          "internalType": "string",
          "name": "task_tags",
          "type": "string"
        }
      ],
      "name": "getTaskHash",
      "outputs": [
        {
          "internalType": "bytes32",
          "name": "task_hash",
          "type": "bytes32"
        }
      ],
      "stateMutability": "view",
      "type": "function"
    },
    {
      "inputs": [
        {
          "internalType": "address",
          "name": "user_address",
          "type": "address"
        }
      ],
      "name": "getWhitelistTier",
      "outputs": [
        {
          "internalType": "uint16",
          "name": "",
          "type": "uint16"
        }
      ],
      "stateMutability": "view",
      "type": "function"
    },
    {
      "inputs": [
        {
          "internalType": "address",
          "name": "",
          "type": "address"
        }
      ],
      "name": "holderPrimaryTokens",
      "outputs": [
        {
          "internalType": "uint256",
          "name": "",
          "type": "uint256"
        }
      ],
      "stateMutability": "view",
      "type": "function"
    },
    {
      "inputs": [
        {
          "internalType": "address",
          "name": "owner",
          "type": "address"
        },
        {
          "internalType": "address",
          "name": "operator",
          "type": "address"
        }
      ],
      "name": "isApprovedForAll",
      "outputs": [
        {
          "internalType": "bool",
          "name": "",
          "type": "bool"
        }
      ],
      "stateMutability": "view",
      "type": "function"
    },
    {
      "inputs": [
        {
          "internalType": "string",
          "name": "token_URI",
          "type": "string"
        }
      ],
      "name": "mint",
      "outputs": [
        {
          "internalType": "uint256",
          "name": "token_ID",
          "type": "uint256"
        }
      ],
      "stateMutability": "payable",
      "type": "function"
    },
    {
      "inputs": [
        {
          "internalType": "uint16",
          "name": "",
          "type": "uint16"
        }
      ],
      "name": "mint_limits",
      "outputs": [
        {
          "internalType": "uint16",
          "name": "",
          "type": "uint16"
        }
      ],
      "stateMutability": "view",
      "type": "function"
    },
    {
      "inputs": [
        {
          "internalType": "uint16",
          "name": "",
          "type": "uint16"
        }
      ],
      "name": "mint_prices",
      "outputs": [
        {
          "internalType": "uint256",
          "name": "",
          "type": "uint256"
        }
      ],
      "stateMutability": "view",
      "type": "function"
    },
    {
      "inputs": [],
      "name": "name",
      "outputs": [
        {
          "internalType": "string",
          "name": "",
          "type": "string"
        }
      ],
      "stateMutability": "view",
      "type": "function"
    },
    {
      "inputs": [],
      "name": "owner",
      "outputs": [
        {
          "internalType": "address",
          "name": "",
          "type": "address"
        }
      ],
      "stateMutability": "view",
      "type": "function"
    },
    {
      "inputs": [
        {
          "internalType": "uint256",
          "name": "tokenId",
          "type": "uint256"
        }
      ],
      "name": "ownerOf",
      "outputs": [
        {
          "internalType": "address",
          "name": "",
          "type": "address"
        }
      ],
      "stateMutability": "view",
      "type": "function"
    },
    {
      "inputs": [
        {
          "internalType": "uint256",
          "name": "",
          "type": "uint256"
        }
      ],
      "name": "primaryTokenHolderIndex",
      "outputs": [
        {
          "internalType": "address",
          "name": "",
          "type": "address"
        }
      ],
      "stateMutability": "view",
      "type": "function"
    },
    {
      "inputs": [],
      "name": "renounceOwnership",
      "outputs": [],
      "stateMutability": "nonpayable",
      "type": "function"
    },
    {
      "inputs": [
        {
          "internalType": "address",
          "name": "from",
          "type": "address"
        },
        {
          "internalType": "address",
          "name": "to",
          "type": "address"
        },
        {
          "internalType": "uint256",
          "name": "tokenId",
          "type": "uint256"
        }
      ],
      "name": "safeTransferFrom",
      "outputs": [],
      "stateMutability": "nonpayable",
      "type": "function"
    },
    {
      "inputs": [
        {
          "internalType": "address",
          "name": "from",
          "type": "address"
        },
        {
          "internalType": "address",
          "name": "to",
          "type": "address"
        },
        {
          "internalType": "uint256",
          "name": "tokenId",
          "type": "uint256"
        },
        {
          "internalType": "bytes",
          "name": "data",
          "type": "bytes"
        }
      ],
      "name": "safeTransferFrom",
      "outputs": [],
      "stateMutability": "nonpayable",
      "type": "function"
    },
    {
      "inputs": [
        {
          "internalType": "address",
          "name": "operator",
          "type": "address"
        },
        {
          "internalType": "bool",
          "name": "approved",
          "type": "bool"
        }
      ],
      "name": "setApprovalForAll",
      "outputs": [],
      "stateMutability": "nonpayable",
      "type": "function"
    },
    {
      "inputs": [
        {
          "internalType": "uint256",
          "name": "token_ID",
          "type": "uint256"
        }
      ],
      "name": "setPrimaryTokenID",
      "outputs": [],
      "stateMutability": "nonpayable",
      "type": "function"
    },
    {
      "inputs": [
        {
          "internalType": "bytes4",
          "name": "interfaceId",
          "type": "bytes4"
        }
      ],
      "name": "supportsInterface",
      "outputs": [
        {
          "internalType": "bool",
          "name": "",
          "type": "bool"
        }
      ],
      "stateMutability": "view",
      "type": "function"
    },
    {
      "inputs": [],
      "name": "symbol",
      "outputs": [
        {
          "internalType": "string",
          "name": "",
          "type": "string"
        }
      ],
      "stateMutability": "view",
      "type": "function"
    },
    {
      "inputs": [
        {
          "internalType": "bytes32",
          "name": "",
          "type": "bytes32"
        }
      ],
      "name": "taskHashArray",
      "outputs": [
        {
          "internalType": "uint256",
          "name": "",
          "type": "uint256"
        }
      ],
      "stateMutability": "view",
      "type": "function"
    },
    {
      "inputs": [
        {
          "internalType": "uint256",
          "name": "",
          "type": "uint256"
        }
      ],
      "name": "tasks",
      "outputs": [
        {
          "internalType": "string",
          "name": "metadata_URI",
          "type": "string"
        },
        {
          "internalType": "uint256",
          "name": "task_ID",
          "type": "uint256"
        },
        {
          "internalType": "string",
          "name": "task_tags",
          "type": "string"
        },
        {
          "internalType": "bytes32",
          "name": "task_hash",
          "type": "bytes32"
        },
        {
          "internalType": "uint256",
          "name": "task_creation_timestamp",
          "type": "uint256"
        },
        {
          "internalType": "address",
          "name": "task_creator_address",
          "type": "address"
        }
      ],
      "stateMutability": "view",
      "type": "function"
    },
    {
      "inputs": [
        {
          "internalType": "uint256",
          "name": "tokenId",
          "type": "uint256"
        }
      ],
      "name": "tokenURI",
      "outputs": [
        {
          "internalType": "string",
          "name": "",
          "type": "string"
        }
      ],
      "stateMutability": "view",
      "type": "function"
    },
    {
      "inputs": [
        {
          "internalType": "address",
          "name": "from",
          "type": "address"
        },
        {
          "internalType": "address",
          "name": "to",
          "type": "address"
        },
        {
          "internalType": "uint256",
          "name": "tokenId",
          "type": "uint256"
        }
      ],
      "name": "transferFrom",
      "outputs": [],
      "stateMutability": "nonpayable",
      "type": "function"
    },
    {
      "inputs": [
        {
          "internalType": "address",
          "name": "newOwner",
          "type": "address"
        }
      ],
      "name": "transferOwnership",
      "outputs": [],
      "stateMutability": "nonpayable",
      "type": "function"
    },
    {
      "inputs": [
        {
          "internalType": "address",
          "name": "",
          "type": "address"
        }
      ],
      "name": "whitelist_tiers",
      "outputs": [
        {
          "internalType": "uint16",
          "name": "",
          "type": "uint16"
        }
      ],
      "stateMutability": "view",
      "type": "function"
    }
  ],
  "bytecode": "0x60806040523480156200001157600080fd5b506040518060400160405280600f81526020017f4f617468546f4d656c696f7269736d00000000000000000000000000000000008152506040518060400160405280600581526020017f4e4f46554e000000000000000000000000000000000000000000000000000000815250816000908051906020019062000096929190620001d8565b508060019080519060200190620000af929190620001d8565b505050620000d2620000c66200010a60201b60201c565b6200011260201b60201c565b6040518060a00160405280606d81526020016200611e606d9139600a908051906020019062000103929190620001d8565b50620002ed565b600033905090565b6000600760009054906101000a900473ffffffffffffffffffffffffffffffffffffffff16905081600760006101000a81548173ffffffffffffffffffffffffffffffffffffffff021916908373ffffffffffffffffffffffffffffffffffffffff1602179055508173ffffffffffffffffffffffffffffffffffffffff168173ffffffffffffffffffffffffffffffffffffffff167f8be0079c531659141344cd1fd0a4f28419497f9722a3daafe3b4186f6b6457e060405160405180910390a35050565b828054620001e69062000288565b90600052602060002090601f0160209004810192826200020a576000855562000256565b82601f106200022557805160ff191683800117855562000256565b8280016001018555821562000256579182015b828111156200025557825182559160200191906001019062000238565b5b50905062000265919062000269565b5090565b5b80821115620002845760008160009055506001016200026a565b5090565b60006002820490506001821680620002a157607f821691505b60208210811415620002b857620002b7620002be565b5b50919050565b7f4e487b7100000000000000000000000000000000000000000000000000000000600052602260045260246000fd5b615e2180620002fd6000396000f3fe6080604052600436106102885760003560e01c806389a9fbfc1161015a578063c87b56dd116100c1578063e8a3d4851161007a578063e8a3d48514610b25578063e985e9c514610b50578063f2fde38b14610b8d578063f7eaff4914610bb6578063fdce4aea14610bf3578063fdd373ea14610c3057610288565b8063c87b56dd146109ce578063c90fb6f814610a0b578063d706b66514610a34578063d85d3d2714610a71578063dabb053114610aa1578063e695eb1714610ae457610288565b8063a1b1aad311610113578063a1b1aad3146108ac578063a22cb465146108d7578063ad0fbd4214610900578063b00a29971461093d578063b88d4fde14610968578063bc8b60ba1461099157610288565b806389a9fbfc1461075d5780638b273d621461079a5780638d977672146107d75780638da5cb5b1461081957806395d89b4114610844578063979e8b721461086f57610288565b80634c0f38c2116101fe57806370a08231116101b757806370a0823114610629578063715018a61461066657806374aaa7601461067d578063828d7b0e146106ba5780638368f68e146106f7578063880b17081461072057610288565b80634c0f38c2146104cd5780634c51b28e146104f857806358ee7173146105355780636352211e1461057257806366d0b660146105af578063690200cb146105ec57610288565b806322b57b1f1161025057806322b57b1f1461039857806322f4596f146103d557806323b872dd1461040057806342842e0e146104295780634428954b146104525780634810bc591461048f57610288565b806301ffc9a71461028d57806306fdde03146102ca578063081812fc146102f5578063095ea7b3146103325780631b94b3a61461035b575b600080fd5b34801561029957600080fd5b506102b460048036038101906102af91906145ea565b610c6d565b6040516102c19190614f04565b60405180910390f35b3480156102d657600080fd5b506102df610cce565b6040516102ec9190614f3a565b60405180910390f35b34801561030157600080fd5b5061031c600480360381019061031791906146a6565b610d60565b6040516103299190614e9d565b60405180910390f35b34801561033e57600080fd5b506103596004803603810190610354919061455c565b610da6565b005b34801561036757600080fd5b50610382600480360381019061037d91906146a6565b610ebe565b60405161038f9190614e9d565b60405180910390f35b3480156103a457600080fd5b506103bf60048036038101906103ba91906143f1565b610ef1565b6040516103cc9190614f3a565b60405180910390f35b3480156103e157600080fd5b506103ea610f42565b6040516103f79190615370565b60405180910390f35b34801561040c57600080fd5b5061042760048036038101906104229190614456565b610f48565b005b34801561043557600080fd5b50610450600480360381019061044b9190614456565b610fa8565b005b34801561045e57600080fd5b506104796004803603810190610474919061475f565b610fc8565b6040516104869190614f1f565b60405180910390f35b34801561049b57600080fd5b506104b660048036038101906104b191906146a6565b61129c565b6040516104c4929190614fbd565b60405180910390f35b3480156104d957600080fd5b506104e2611348565b6040516104ef9190615370565b60405180910390f35b34801561050457600080fd5b5061051f600480360381019061051a91906146a6565b611352565b60405161052c9190615370565b60405180910390f35b34801561054157600080fd5b5061055c6004803603810190610557919061470b565b611372565b6040516105699190614f3a565b60405180910390f35b34801561057e57600080fd5b50610599600480360381019061059491906146a6565b61140a565b6040516105a69190614e9d565b60405180910390f35b3480156105bb57600080fd5b506105d660048036038101906105d1919061467d565b611491565b6040516105e39190615370565b60405180910390f35b3480156105f857600080fd5b50610613600480360381019061060e91906146a6565b6114a9565b6040516106209190614e9d565b60405180910390f35b34801561063557600080fd5b50610650600480360381019061064b91906143f1565b6114e6565b60405161065d9190615370565b60405180910390f35b34801561067257600080fd5b5061067b61159e565b005b34801561068957600080fd5b506106a4600480360381019061069f919061470b565b6115b2565b6040516106b19190614f1f565b60405180910390f35b3480156106c657600080fd5b506106e160048036038101906106dc91906147de565b61183e565b6040516106ee9190615370565b60405180910390f35b34801561070357600080fd5b5061071e600480360381019061071991906146cf565b611879565b005b34801561072c57600080fd5b50610747600480360381019061074291906143f1565b61188f565b6040516107549190615355565b60405180910390f35b34801561076957600080fd5b50610784600480360381019061077f919061463c565b6118b0565b6040516107919190615370565b60405180910390f35b3480156107a657600080fd5b506107c160048036038101906107bc9190614598565b6118ca565b6040516107ce9190615370565b60405180910390f35b3480156107e357600080fd5b506107fe60048036038101906107f991906146a6565b6118e2565b60405161081096959493929190615086565b60405180910390f35b34801561082557600080fd5b5061082e611a4e565b60405161083b9190614e9d565b60405180910390f35b34801561085057600080fd5b50610859611a78565b6040516108669190614f3a565b60405180910390f35b34801561087b57600080fd5b506108966004803603810190610891919061467d565b611b0a565b6040516108a39190615370565b60405180910390f35b3480156108b857600080fd5b506108c1611b2f565b6040516108ce9190615370565b60405180910390f35b3480156108e357600080fd5b506108fe60048036038101906108f99190614520565b611b40565b005b34801561090c57600080fd5b50610927600480360381019061092291906143f1565b611b56565b6040516109349190615370565b60405180910390f35b34801561094957600080fd5b50610952611b6e565b60405161095f9190614f3a565b60405180910390f35b34801561097457600080fd5b5061098f600480360381019061098a91906144a5565b611bfc565b005b34801561099d57600080fd5b506109b860048036038101906109b3919061467d565b611c5e565b6040516109c59190615355565b60405180910390f35b3480156109da57600080fd5b506109f560048036038101906109f091906146a6565b611c7f565b604051610a029190614f3a565b60405180910390f35b348015610a1757600080fd5b50610a326004803603810190610a2d91906146a6565b611d92565b005b348015610a4057600080fd5b50610a5b6004803603810190610a56919061463c565b611d9f565b604051610a689190614f3a565b60405180910390f35b610a8b6004803603810190610a86919061463c565b611e52565b604051610a989190615370565b60405180910390f35b348015610aad57600080fd5b50610ac86004803603810190610ac391906146a6565b611ec5565b604051610adb9796959493929190614fed565b60405180910390f35b348015610af057600080fd5b50610b0b6004803603810190610b06919061470b565b61223b565b604051610b1c959493929190614f5c565b60405180910390f35b348015610b3157600080fd5b50610b3a6124dc565b604051610b479190614f3a565b60405180910390f35b348015610b5c57600080fd5b50610b776004803603810190610b72919061441a565b61256e565b604051610b849190614f04565b60405180910390f35b348015610b9957600080fd5b50610bb46004803603810190610baf91906143f1565b612602565b005b348015610bc257600080fd5b50610bdd6004803603810190610bd891906143f1565b612686565b604051610bea9190615355565b60405180910390f35b348015610bff57600080fd5b50610c1a6004803603810190610c1591906143f1565b6126dd565b604051610c279190615370565b60405180910390f35b348015610c3c57600080fd5b50610c576004803603810190610c52919061470b565b612726565b604051610c649190614f1f565b60405180910390f35b6000634906490660e01b7bffffffffffffffffffffffffffffffffffffffffffffffffffffffff1916827bffffffffffffffffffffffffffffffffffffffffffffffffffffffff19161480610cc75750610cc6826127a1565b5b9050919050565b606060008054610cdd9061575d565b80601f0160208091040260200160405190810160405280929190818152602001828054610d099061575d565b8015610d565780601f10610d2b57610100808354040283529160200191610d56565b820191906000526020600020905b815481529060010190602001808311610d3957829003601f168201915b5050505050905090565b6000610d6b82612883565b6004600083815260200190815260200160002060009054906101000a900473ffffffffffffffffffffffffffffffffffffffff169050919050565b6000610db18261140a565b90508073ffffffffffffffffffffffffffffffffffffffff168373ffffffffffffffffffffffffffffffffffffffff161415610e22576040517f08c379a0000000000000000000000000000000000000000000000000000000008152600401610e19906152b5565b60405180910390fd5b8073ffffffffffffffffffffffffffffffffffffffff16610e416128ce565b73ffffffffffffffffffffffffffffffffffffffff161480610e705750610e6f81610e6a6128ce565b61256e565b5b610eaf576040517f08c379a0000000000000000000000000000000000000000000000000000000008152600401610ea6906152d5565b60405180910390fd5b610eb983836128d6565b505050565b60116020528060005260406000206000915054906101000a900473ffffffffffffffffffffffffffffffffffffffff1681565b6060610f3b601060008473ffffffffffffffffffffffffffffffffffffffff1673ffffffffffffffffffffffffffffffffffffffff16815260200190815260200160002054611c7f565b9050919050565b600e5481565b610f59610f536128ce565b8261298f565b610f98576040517f08c379a0000000000000000000000000000000000000000000000000000000008152600401610f8f906150f5565b60405180910390fd5b610fa3838383612a24565b505050565b610fc383838360405180602001604052806000815250611bfc565b505050565b6000610fd2612d1e565b60028484604051602001610fe7929190614e75565b6040516020818303038152906040526040516110039190614e3a565b602060405180830381855afa158015611020573d6000803e3d6000fd5b5050506040513d601f19601f8201168201806040525081019061104391906145c1565b9050600160146000838152602001908152602001600020541061109b576040517f08c379a000000000000000000000000000000000000000000000000000000000815260040161109290615295565b60405180910390fd5b6110a56009612d9c565b60006110b16009612db2565b90506040518060e00160405280848152602001868152602001858152602001838152602001600067ffffffffffffffff811115611117577f4e487b7100000000000000000000000000000000000000000000000000000000600052604160045260246000fd5b6040519080825280602002602001820160405280156111455781602001602082028036833780820191505090505b5081526020014281526020013373ffffffffffffffffffffffffffffffffffffffff1681525060136000838152602001908152602001600020600082015181600001908051906020019061119a929190613fd1565b506020820151816001015560408201518160020190805190602001906111c1929190613fd1565b506060820151816003015560808201518160040190805190602001906111e8929190614057565b5060a0820151816005015560c08201518160060160006101000a81548173ffffffffffffffffffffffffffffffffffffffff021916908373ffffffffffffffffffffffffffffffffffffffff1602179055509050508060146000848152602001908152602001600020819055507f5c6463056f307dbd0cbc60d900e8598faffd4ca912ec19f5224060a0489388c9818686868660405161128c95949392919061540e565b60405180910390a1509392505050565b60126020528060005260406000206000915090508060000180546112bf9061575d565b80601f01602080910402602001604051908101604052809291908181526020018280546112eb9061575d565b80156113385780601f1061130d57610100808354040283529160200191611338565b820191906000526020600020905b81548152906001019060200180831161131b57829003601f168201915b5050505050908060010154905082565b6000600e54905090565b600061135c612d1e565b611364611348565b905081600e81905550919050565b606061137c612d1e565b61138583612dc0565b6113c4576040517f08c379a00000000000000000000000000000000000000000000000000000000081526004016113bb90615195565b60405180910390fd5b6113cd83611c7f565b90506113d98383612e01565b81601260008581526020019081526020016000206000019080519060200190611403929190613fd1565b5092915050565b60008061141683612eac565b9050600073ffffffffffffffffffffffffffffffffffffffff168173ffffffffffffffffffffffffffffffffffffffff161415611488576040517f08c379a000000000000000000000000000000000000000000000000000000000815260040161147f90615275565b60405180910390fd5b80915050919050565b600b6020528060005260406000206000915090505481565b60006011600083815260200190815260200160002060009054906101000a900473ffffffffffffffffffffffffffffffffffffffff169050919050565b60008073ffffffffffffffffffffffffffffffffffffffff168273ffffffffffffffffffffffffffffffffffffffff161415611557576040517f08c379a000000000000000000000000000000000000000000000000000000000815260040161154e906151f5565b60405180910390fd5b600360008373ffffffffffffffffffffffffffffffffffffffff1673ffffffffffffffffffffffffffffffffffffffff168152602001908152602001600020549050919050565b6115a6612d1e565b6115b06000612ee9565b565b6000600283836040516020016115c9929190614e75565b6040516020818303038152906040526040516115e59190614e3a565b602060405180830381855afa158015611602573d6000803e3d6000fd5b5050506040513d601f19601f8201168201806040525081019061162591906145c1565b90506000611632336126dd565b9050600042905060016012600084815260200190815260200160002060010160008282546116609190615639565b925050819055506012600083815260200190815260200160002060020185908060018154018082558091505060019003906000526020600020016000909190919091505560126000838152602001908152602001600020600301849080600181540180825580915050600190039060005260206000200160009091909190915090805190602001906116f3929190613fd1565b5060126000838152602001908152602001600020600401839080600181540180825580915050600190039060005260206000200160009091909190915055601260008381526020019081526020016000206005018190806001815401808255809150506001900390600052602060002001600090919091909150556013600060146000868152602001908152602001600020548152602001908152602001600020600401339080600181540180825580915050600190039060005260206000200160009091909190916101000a81548173ffffffffffffffffffffffffffffffffffffffff021916908373ffffffffffffffffffffffffffffffffffffffff1602179055507e2d0611dcf296ca8ae27a865e4ba0ad917334e1290fc775ea0d8c6dece59cb4858585843360405161182e9594939291906153b4565b60405180910390a1505092915050565b6000611848612d1e565b61185182611b0a565b905082600b60008461ffff1661ffff1681526020019081526020016000208190555092915050565b611881612d1e565b61188b8282612faf565b5050565b600d6020528060005260406000206000915054906101000a900461ffff1681565b60006118ba612d1e565b6118c38261311c565b9050919050565b60146020528060005260406000206000915090505481565b60136020528060005260406000206000915090508060000180546119059061575d565b80601f01602080910402602001604051908101604052809291908181526020018280546119319061575d565b801561197e5780601f106119535761010080835404028352916020019161197e565b820191906000526020600020905b81548152906001019060200180831161196157829003601f168201915b5050505050908060010154908060020180546119999061575d565b80601f01602080910402602001604051908101604052809291908181526020018280546119c59061575d565b8015611a125780601f106119e757610100808354040283529160200191611a12565b820191906000526020600020905b8154815290600101906020018083116119f557829003601f168201915b5050505050908060030154908060050154908060060160009054906101000a900473ffffffffffffffffffffffffffffffffffffffff16905086565b6000600760009054906101000a900473ffffffffffffffffffffffffffffffffffffffff16905090565b606060018054611a879061575d565b80601f0160208091040260200160405190810160405280929190818152602001828054611ab39061575d565b8015611b005780601f10611ad557610100808354040283529160200191611b00565b820191906000526020600020905b815481529060010190602001808311611ae357829003601f168201915b5050505050905090565b6000600b60008361ffff1661ffff168152602001908152602001600020549050919050565b6000611b3b600f612db2565b905090565b611b52611b4b6128ce565b8383613567565b5050565b60106020528060005260406000206000915090505481565b600a8054611b7b9061575d565b80601f0160208091040260200160405190810160405280929190818152602001828054611ba79061575d565b8015611bf45780601f10611bc957610100808354040283529160200191611bf4565b820191906000526020600020905b815481529060010190602001808311611bd757829003601f168201915b505050505081565b611c0d611c076128ce565b8361298f565b611c4c576040517f08c379a0000000000000000000000000000000000000000000000000000000008152600401611c43906150f5565b60405180910390fd5b611c58848484846136d4565b50505050565b600c6020528060005260406000206000915054906101000a900461ffff1681565b6060611c8a82612883565b6000600660008481526020019081526020016000208054611caa9061575d565b80601f0160208091040260200160405190810160405280929190818152602001828054611cd69061575d565b8015611d235780601f10611cf857610100808354040283529160200191611d23565b820191906000526020600020905b815481529060010190602001808311611d0657829003601f168201915b505050505090506000611d34613730565b9050600081511415611d4a578192505050611d8d565b600082511115611d7f578082604051602001611d67929190614e51565b60405160208183030381529060405292505050611d8d565b611d8884613747565b925050505b919050565b611d9c8133612faf565b50565b6060611da9612d1e565b600a8054611db69061575d565b80601f0160208091040260200160405190810160405280929190818152602001828054611de29061575d565b8015611e2f5780601f10611e0457610100808354040283529160200191611e2f565b820191906000526020600020905b815481529060010190602001808311611e1257829003601f168201915b5050505050905081600a9080519060200190611e4c929190613fd1565b50919050565b600080611e66611e6133612686565b611b0a565b905080341015611eab576040517f08c379a0000000000000000000000000000000000000000000000000000000008152600401611ea290615315565b60405180910390fd5b611eb48361311c565b9150611ebf82611d92565b50919050565b6060600060608060608060606000601260008a81526020019081526020016000206040518060e0016040529081600082018054611f019061575d565b80601f0160208091040260200160405190810160405280929190818152602001828054611f2d9061575d565b8015611f7a5780601f10611f4f57610100808354040283529160200191611f7a565b820191906000526020600020905b815481529060010190602001808311611f5d57829003601f168201915b505050505081526020016001820154815260200160028201805480602002602001604051908101604052809291908181526020018280548015611fdc57602002820191906000526020600020905b815481526020019060010190808311611fc8575b5050505050815260200160038201805480602002602001604051908101604052809291908181526020016000905b828210156120b65783829060005260206000200180546120299061575d565b80601f01602080910402602001604051908101604052809291908181526020018280546120559061575d565b80156120a25780601f10612077576101008083540402835291602001916120a2565b820191906000526020600020905b81548152906001019060200180831161208557829003601f168201915b50505050508152602001906001019061200a565b5050505081526020016004820180548060200260200160405190810160405280929190818152602001828054801561210d57602002820191906000526020600020905b8154815260200190600101908083116120f9575b505050505081526020016005820180548060200260200160405190810160405280929190818152602001828054801561216557602002820191906000526020600020905b815481526020019060010190808311612151575b50505050508152602001600682018054806020026020016040519081016040528092919081815260200182805480156121f357602002820191906000526020600020905b8160009054906101000a900473ffffffffffffffffffffffffffffffffffffffff1673ffffffffffffffffffffffffffffffffffffffff16815260200190600101908083116121a9575b5050505050815250509050806000015181602001518260400151836060015184608001518560a001518660c00151975097509750975097509750975050919395979092949650565b60606000606060008060006122508888612726565b9050600060136000601460008581526020019081526020016000205481526020019081526020016000206040518060e00160405290816000820180546122959061575d565b80601f01602080910402602001604051908101604052809291908181526020018280546122c19061575d565b801561230e5780601f106122e35761010080835404028352916020019161230e565b820191906000526020600020905b8154815290600101906020018083116122f157829003601f168201915b50505050508152602001600182015481526020016002820180546123319061575d565b80601f016020809104026020016040519081016040528092919081815260200182805461235d9061575d565b80156123aa5780601f1061237f576101008083540402835291602001916123aa565b820191906000526020600020905b81548152906001019060200180831161238d57829003601f168201915b50505050508152602001600382015481526020016004820180548060200260200160405190810160405280929190818152602001828054801561244257602002820191906000526020600020905b8160009054906101000a900473ffffffffffffffffffffffffffffffffffffffff1673ffffffffffffffffffffffffffffffffffffffff16815260200190600101908083116123f8575b50505050508152602001600582015481526020016006820160009054906101000a900473ffffffffffffffffffffffffffffffffffffffff1673ffffffffffffffffffffffffffffffffffffffff1673ffffffffffffffffffffffffffffffffffffffff168152505090508060000151816060015182608001518360a001518460c001519650965096509650965050509295509295909350565b6060600a80546124eb9061575d565b80601f01602080910402602001604051908101604052809291908181526020018280546125179061575d565b80156125645780601f1061253957610100808354040283529160200191612564565b820191906000526020600020905b81548152906001019060200180831161254757829003601f168201915b5050505050905090565b6000600560008473ffffffffffffffffffffffffffffffffffffffff1673ffffffffffffffffffffffffffffffffffffffff16815260200190815260200160002060008373ffffffffffffffffffffffffffffffffffffffff1673ffffffffffffffffffffffffffffffffffffffff16815260200190815260200160002060009054906101000a900460ff16905092915050565b61260a612d1e565b600073ffffffffffffffffffffffffffffffffffffffff168173ffffffffffffffffffffffffffffffffffffffff16141561267a576040517f08c379a000000000000000000000000000000000000000000000000000000000815260040161267190615135565b60405180910390fd5b61268381612ee9565b50565b6000600d60008373ffffffffffffffffffffffffffffffffffffffff1673ffffffffffffffffffffffffffffffffffffffff16815260200190815260200160002060009054906101000a900461ffff169050919050565b6000601060008373ffffffffffffffffffffffffffffffffffffffff1673ffffffffffffffffffffffffffffffffffffffff168152602001908152602001600020549050919050565b60006002838360405160200161273d929190614e75565b6040516020818303038152906040526040516127599190614e3a565b602060405180830381855afa158015612776573d6000803e3d6000fd5b5050506040513d601f19601f8201168201806040525081019061279991906145c1565b905092915050565b60007f80ac58cd000000000000000000000000000000000000000000000000000000007bffffffffffffffffffffffffffffffffffffffffffffffffffffffff1916827bffffffffffffffffffffffffffffffffffffffffffffffffffffffff1916148061286c57507f5b5e139f000000000000000000000000000000000000000000000000000000007bffffffffffffffffffffffffffffffffffffffffffffffffffffffff1916827bffffffffffffffffffffffffffffffffffffffffffffffffffffffff1916145b8061287c575061287b826137af565b5b9050919050565b61288c81612dc0565b6128cb576040517f08c379a00000000000000000000000000000000000000000000000000000000081526004016128c290615275565b60405180910390fd5b50565b600033905090565b816004600083815260200190815260200160002060006101000a81548173ffffffffffffffffffffffffffffffffffffffff021916908373ffffffffffffffffffffffffffffffffffffffff160217905550808273ffffffffffffffffffffffffffffffffffffffff166129498361140a565b73ffffffffffffffffffffffffffffffffffffffff167f8c5be1e5ebec7d5bd14f71427d1e84f3dd0314c0f7b2291e5b200ac8c7c3b92560405160405180910390a45050565b60008061299b8361140a565b90508073ffffffffffffffffffffffffffffffffffffffff168473ffffffffffffffffffffffffffffffffffffffff1614806129dd57506129dc818561256e565b5b80612a1b57508373ffffffffffffffffffffffffffffffffffffffff16612a0384610d60565b73ffffffffffffffffffffffffffffffffffffffff16145b91505092915050565b8273ffffffffffffffffffffffffffffffffffffffff16612a448261140a565b73ffffffffffffffffffffffffffffffffffffffff1614612a9a576040517f08c379a0000000000000000000000000000000000000000000000000000000008152600401612a9190615155565b60405180910390fd5b600073ffffffffffffffffffffffffffffffffffffffff168273ffffffffffffffffffffffffffffffffffffffff161415612b0a576040517f08c379a0000000000000000000000000000000000000000000000000000000008152600401612b01906151b5565b60405180910390fd5b612b178383836001613819565b8273ffffffffffffffffffffffffffffffffffffffff16612b378261140a565b73ffffffffffffffffffffffffffffffffffffffff1614612b8d576040517f08c379a0000000000000000000000000000000000000000000000000000000008152600401612b8490615155565b60405180910390fd5b6004600082815260200190815260200160002060006101000a81549073ffffffffffffffffffffffffffffffffffffffff02191690556001600360008573ffffffffffffffffffffffffffffffffffffffff1673ffffffffffffffffffffffffffffffffffffffff168152602001908152602001600020600082825403925050819055506001600360008473ffffffffffffffffffffffffffffffffffffffff1673ffffffffffffffffffffffffffffffffffffffff16815260200190815260200160002060008282540192505081905550816002600083815260200190815260200160002060006101000a81548173ffffffffffffffffffffffffffffffffffffffff021916908373ffffffffffffffffffffffffffffffffffffffff160217905550808273ffffffffffffffffffffffffffffffffffffffff168473ffffffffffffffffffffffffffffffffffffffff167fddf252ad1be2c89b69c2b068fc378daa952ba7f163c4a11628f55a4df523b3ef60405160405180910390a4612d19838383600161381f565b505050565b612d266128ce565b73ffffffffffffffffffffffffffffffffffffffff16612d44611a4e565b73ffffffffffffffffffffffffffffffffffffffff1614612d9a576040517f08c379a0000000000000000000000000000000000000000000000000000000008152600401612d9190615255565b60405180910390fd5b565b6001816000016000828254019250508190555050565b600081600001549050919050565b60008073ffffffffffffffffffffffffffffffffffffffff16612de283612eac565b73ffffffffffffffffffffffffffffffffffffffff1614159050919050565b612e0a82612dc0565b612e49576040517f08c379a0000000000000000000000000000000000000000000000000000000008152600401612e4090615215565b60405180910390fd5b80600660008481526020019081526020016000209080519060200190612e70929190613fd1565b507ff8e1a15aba9398e019f0b49df1a4fde98ee17ae345cb5f6b5e2c27f5033e8ce782604051612ea09190615370565b60405180910390a15050565b60006002600083815260200190815260200160002060009054906101000a900473ffffffffffffffffffffffffffffffffffffffff169050919050565b6000600760009054906101000a900473ffffffffffffffffffffffffffffffffffffffff16905081600760006101000a81548173ffffffffffffffffffffffffffffffffffffffff021916908373ffffffffffffffffffffffffffffffffffffffff1602179055508173ffffffffffffffffffffffffffffffffffffffff168173ffffffffffffffffffffffffffffffffffffffff167f8be0079c531659141344cd1fd0a4f28419497f9722a3daafe3b4186f6b6457e060405160405180910390a35050565b8073ffffffffffffffffffffffffffffffffffffffff16612fcf83612eac565b73ffffffffffffffffffffffffffffffffffffffff1614613025576040517f08c379a000000000000000000000000000000000000000000000000000000000815260040161301c906152f5565b60405180910390fd5b6000613030826126dd565b1161309b5761303f600f612d9c565b806011600061304e600f612db2565b815260200190815260200160002060006101000a81548173ffffffffffffffffffffffffffffffffffffffff021916908373ffffffffffffffffffffffffffffffffffffffff1602179055505b81601060008373ffffffffffffffffffffffffffffffffffffffff1673ffffffffffffffffffffffffffffffffffffffff168152602001908152602001600020819055507f25c8eb6f155da432032b0b32dcb8a12a687bb3ed7e010987bb2a910dd21a1687828260405161311092919061538b565b60405180910390a15050565b6000600e5461312b6008612db2565b1061316b576040517f08c379a000000000000000000000000000000000000000000000000000000000815260040161316290615335565b60405180910390fd5b6131756008612d9c565b61317f6008612db2565b905061318b3382613825565b6131958183612e01565b60016131a0336126dd565b10156131b0576131af81611d92565b5b6131b981611d92565b6040518060e0016040528083815260200160008152602001600067ffffffffffffffff811115613212577f4e487b7100000000000000000000000000000000000000000000000000000000600052604160045260246000fd5b6040519080825280602002602001820160405280156132405781602001602082028036833780820191505090505b508152602001600067ffffffffffffffff811115613287577f4e487b7100000000000000000000000000000000000000000000000000000000600052604160045260246000fd5b6040519080825280602002602001820160405280156132ba57816020015b60608152602001906001900390816132a55790505b508152602001600067ffffffffffffffff811115613301577f4e487b7100000000000000000000000000000000000000000000000000000000600052604160045260246000fd5b60405190808252806020026020018201604052801561332f5781602001602082028036833780820191505090505b508152602001600067ffffffffffffffff811115613376577f4e487b7100000000000000000000000000000000000000000000000000000000600052604160045260246000fd5b6040519080825280602002602001820160405280156133a45781602001602082028036833780820191505090505b508152602001600067ffffffffffffffff8111156133eb577f4e487b7100000000000000000000000000000000000000000000000000000000600052604160045260246000fd5b6040519080825280602002602001820160405280156134195781602001602082028036833780820191505090505b5081525060126000838152602001908152602001600020600082015181600001908051906020019061344c929190613fd1565b506020820151816001015560408201518160020190805190602001906134739291906140e1565b50606082015181600301908051906020019061349092919061412e565b5060808201518160040190805190602001906134ad92919061418e565b5060a08201518160050190805190602001906134ca9291906140e1565b5060c08201518160060190805190602001906134e7929190614057565b5090505060126000828152602001908152602001600020600601339080600181540180825580915050600190039060005260206000200160009091909190916101000a81548173ffffffffffffffffffffffffffffffffffffffff021916908373ffffffffffffffffffffffffffffffffffffffff160217905550919050565b8173ffffffffffffffffffffffffffffffffffffffff168373ffffffffffffffffffffffffffffffffffffffff1614156135d6576040517f08c379a00000000000000000000000000000000000000000000000000000000081526004016135cd906151d5565b60405180910390fd5b80600560008573ffffffffffffffffffffffffffffffffffffffff1673ffffffffffffffffffffffffffffffffffffffff16815260200190815260200160002060008473ffffffffffffffffffffffffffffffffffffffff1673ffffffffffffffffffffffffffffffffffffffff16815260200190815260200160002060006101000a81548160ff0219169083151502179055508173ffffffffffffffffffffffffffffffffffffffff168373ffffffffffffffffffffffffffffffffffffffff167f17307eab39ab6107e8899845ad3d59bd9653f200f220920489ca2b5937696c31836040516136c79190614f04565b60405180910390a3505050565b6136df848484612a24565b6136eb84848484613843565b61372a576040517f08c379a000000000000000000000000000000000000000000000000000000000815260040161372190615115565b60405180910390fd5b50505050565b606060405180602001604052806000815250905090565b606061375282612883565b600061375c613730565b9050600081511161377c57604051806020016040528060008152506137a7565b80613786846139da565b604051602001613797929190614e51565b6040516020818303038152906040525b915050919050565b60007f01ffc9a7000000000000000000000000000000000000000000000000000000007bffffffffffffffffffffffffffffffffffffffffffffffffffffffff1916827bffffffffffffffffffffffffffffffffffffffffffffffffffffffff1916149050919050565b50505050565b50505050565b61383f828260405180602001604052806000815250613afe565b5050565b60006138648473ffffffffffffffffffffffffffffffffffffffff16613b59565b156139cd578373ffffffffffffffffffffffffffffffffffffffff1663150b7a0261388d6128ce565b8786866040518563ffffffff1660e01b81526004016138af9493929190614eb8565b602060405180830381600087803b1580156138c957600080fd5b505af19250505080156138fa57506040513d601f19601f820116820180604052508101906138f79190614613565b60015b61397d573d806000811461392a576040519150601f19603f3d011682016040523d82523d6000602084013e61392f565b606091505b50600081511415613975576040517f08c379a000000000000000000000000000000000000000000000000000000000815260040161396c90615115565b60405180910390fd5b805181602001fd5b63150b7a0260e01b7bffffffffffffffffffffffffffffffffffffffffffffffffffffffff1916817bffffffffffffffffffffffffffffffffffffffffffffffffffffffff1916149150506139d2565b600190505b949350505050565b6060600060016139e984613b7c565b01905060008167ffffffffffffffff811115613a2e577f4e487b7100000000000000000000000000000000000000000000000000000000600052604160045260246000fd5b6040519080825280601f01601f191660200182016040528015613a605781602001600182028036833780820191505090505b509050600082602001820190505b600115613af3578080600190039150507f3031323334353637383961626364656600000000000000000000000000000000600a86061a8153600a8581613add577f4e487b7100000000000000000000000000000000000000000000000000000000600052601260045260246000fd5b0494506000851415613aee57613af3565b613a6e565b819350505050919050565b613b088383613db3565b613b156000848484613843565b613b54576040517f08c379a0000000000000000000000000000000000000000000000000000000008152600401613b4b90615115565b60405180910390fd5b505050565b6000808273ffffffffffffffffffffffffffffffffffffffff163b119050919050565b600080600090507a184f03e93ff9f4daa797ed6e38ed64bf6a1f0100000000000000008310613c00577a184f03e93ff9f4daa797ed6e38ed64bf6a1f0100000000000000008381613bf6577f4e487b7100000000000000000000000000000000000000000000000000000000600052601260045260246000fd5b0492506040810190505b6d04ee2d6d415b85acef81000000008310613c63576d04ee2d6d415b85acef81000000008381613c59577f4e487b7100000000000000000000000000000000000000000000000000000000600052601260045260246000fd5b0492506020810190505b662386f26fc100008310613cb857662386f26fc100008381613cae577f4e487b7100000000000000000000000000000000000000000000000000000000600052601260045260246000fd5b0492506010810190505b6305f5e1008310613d07576305f5e1008381613cfd577f4e487b7100000000000000000000000000000000000000000000000000000000600052601260045260246000fd5b0492506008810190505b6127108310613d52576127108381613d48577f4e487b7100000000000000000000000000000000000000000000000000000000600052601260045260246000fd5b0492506004810190505b60648310613d9b5760648381613d91577f4e487b7100000000000000000000000000000000000000000000000000000000600052601260045260246000fd5b0492506002810190505b600a8310613daa576001810190505b80915050919050565b600073ffffffffffffffffffffffffffffffffffffffff168273ffffffffffffffffffffffffffffffffffffffff161415613e23576040517f08c379a0000000000000000000000000000000000000000000000000000000008152600401613e1a90615235565b60405180910390fd5b613e2c81612dc0565b15613e6c576040517f08c379a0000000000000000000000000000000000000000000000000000000008152600401613e6390615175565b60405180910390fd5b613e7a600083836001613819565b613e8381612dc0565b15613ec3576040517f08c379a0000000000000000000000000000000000000000000000000000000008152600401613eba90615175565b60405180910390fd5b6001600360008473ffffffffffffffffffffffffffffffffffffffff1673ffffffffffffffffffffffffffffffffffffffff16815260200190815260200160002060008282540192505081905550816002600083815260200190815260200160002060006101000a81548173ffffffffffffffffffffffffffffffffffffffff021916908373ffffffffffffffffffffffffffffffffffffffff160217905550808273ffffffffffffffffffffffffffffffffffffffff16600073ffffffffffffffffffffffffffffffffffffffff167fddf252ad1be2c89b69c2b068fc378daa952ba7f163c4a11628f55a4df523b3ef60405160405180910390a4613fcd60008383600161381f565b5050565b828054613fdd9061575d565b90600052602060002090601f016020900481019282613fff5760008555614046565b82601f1061401857805160ff1916838001178555614046565b82800160010185558215614046579182015b8281111561404557825182559160200191906001019061402a565b5b50905061405391906141db565b5090565b8280548282559060005260206000209081019282156140d0579160200282015b828111156140cf5782518260006101000a81548173ffffffffffffffffffffffffffffffffffffffff021916908373ffffffffffffffffffffffffffffffffffffffff16021790555091602001919060010190614077565b5b5090506140dd91906141db565b5090565b82805482825590600052602060002090810192821561411d579160200282015b8281111561411c578251825591602001919060010190614101565b5b50905061412a91906141db565b5090565b82805482825590600052602060002090810192821561417d579160200282015b8281111561417c57825182908051906020019061416c929190613fd1565b509160200191906001019061414e565b5b50905061418a91906141f8565b5090565b8280548282559060005260206000209081019282156141ca579160200282015b828111156141c95782518255916020019190600101906141ae565b5b5090506141d7919061421c565b5090565b5b808211156141f45760008160009055506001016141dc565b5090565b5b80821115614218576000818161420f9190614239565b506001016141f9565b5090565b5b8082111561423557600081600090555060010161421d565b5090565b5080546142459061575d565b6000825580601f106142575750614276565b601f01602090049060005260206000209081019061427591906141db565b5b50565b600061428c61428784615494565b61546f565b9050828152602081018484840111156142a457600080fd5b6142af84828561571b565b509392505050565b60006142ca6142c5846154c5565b61546f565b9050828152602081018484840111156142e257600080fd5b6142ed84828561571b565b509392505050565b60008135905061430481615d61565b92915050565b60008135905061431981615d78565b92915050565b60008135905061432e81615d8f565b92915050565b60008151905061434381615d8f565b92915050565b60008135905061435881615da6565b92915050565b60008151905061436d81615da6565b92915050565b600082601f83011261438457600080fd5b8135614394848260208601614279565b91505092915050565b600082601f8301126143ae57600080fd5b81356143be8482602086016142b7565b91505092915050565b6000813590506143d681615dbd565b92915050565b6000813590506143eb81615dd4565b92915050565b60006020828403121561440357600080fd5b6000614411848285016142f5565b91505092915050565b6000806040838503121561442d57600080fd5b600061443b858286016142f5565b925050602061444c858286016142f5565b9150509250929050565b60008060006060848603121561446b57600080fd5b6000614479868287016142f5565b935050602061448a868287016142f5565b925050604061449b868287016143dc565b9150509250925092565b600080600080608085870312156144bb57600080fd5b60006144c9878288016142f5565b94505060206144da878288016142f5565b93505060406144eb878288016143dc565b925050606085013567ffffffffffffffff81111561450857600080fd5b61451487828801614373565b91505092959194509250565b6000806040838503121561453357600080fd5b6000614541858286016142f5565b92505060206145528582860161430a565b9150509250929050565b6000806040838503121561456f57600080fd5b600061457d858286016142f5565b925050602061458e858286016143dc565b9150509250929050565b6000602082840312156145aa57600080fd5b60006145b88482850161431f565b91505092915050565b6000602082840312156145d357600080fd5b60006145e184828501614334565b91505092915050565b6000602082840312156145fc57600080fd5b600061460a84828501614349565b91505092915050565b60006020828403121561462557600080fd5b60006146338482850161435e565b91505092915050565b60006020828403121561464e57600080fd5b600082013567ffffffffffffffff81111561466857600080fd5b6146748482850161439d565b91505092915050565b60006020828403121561468f57600080fd5b600061469d848285016143c7565b91505092915050565b6000602082840312156146b857600080fd5b60006146c6848285016143dc565b91505092915050565b600080604083850312156146e257600080fd5b60006146f0858286016143dc565b9250506020614701858286016142f5565b9150509250929050565b6000806040838503121561471e57600080fd5b600061472c858286016143dc565b925050602083013567ffffffffffffffff81111561474957600080fd5b6147558582860161439d565b9150509250929050565b60008060006060848603121561477457600080fd5b6000614782868287016143dc565b935050602084013567ffffffffffffffff81111561479f57600080fd5b6147ab8682870161439d565b925050604084013567ffffffffffffffff8111156147c857600080fd5b6147d48682870161439d565b9150509250925092565b600080604083850312156147f157600080fd5b60006147ff858286016143dc565b9250506020614810858286016143c7565b9150509250929050565b60006148268383614876565b60208301905092915050565b600061483e8383614a32565b60208301905092915050565b60006148568383614aba565b905092915050565b600061486a8383614e05565b60208301905092915050565b61487f8161568f565b82525050565b61488e8161568f565b82525050565b600061489f82615536565b6148a981856155ac565b93506148b4836154f6565b8060005b838110156148e55781516148cc888261481a565b97506148d783615578565b9250506001810190506148b8565b5085935050505092915050565b60006148fd82615541565b61490781856155bd565b935061491283615506565b8060005b8381101561494357815161492a8882614832565b975061493583615585565b925050600181019050614916565b5085935050505092915050565b600061495b8261554c565b61496581856155ce565b93508360208202850161497785615516565b8060005b858110156149b35784840389528151614994858261484a565b945061499f83615592565b925060208a0199505060018101905061497b565b50829750879550505050505092915050565b60006149d082615557565b6149da81856155df565b93506149e583615526565b8060005b83811015614a165781516149fd888261485e565b9750614a088361559f565b9250506001810190506149e9565b5085935050505092915050565b614a2c816156a1565b82525050565b614a3b816156ad565b82525050565b614a4a816156ad565b82525050565b6000614a5b82615562565b614a6581856155f0565b9350614a7581856020860161572a565b614a7e81615857565b840191505092915050565b6000614a9482615562565b614a9e8185615601565b9350614aae81856020860161572a565b80840191505092915050565b6000614ac58261556d565b614acf818561560c565b9350614adf81856020860161572a565b614ae881615857565b840191505092915050565b6000614afe8261556d565b614b08818561561d565b9350614b1881856020860161572a565b614b2181615857565b840191505092915050565b6000614b378261556d565b614b41818561562e565b9350614b5181856020860161572a565b80840191505092915050565b6000614b6a602d8361561d565b9150614b7582615868565b604082019050919050565b6000614b8d60328361561d565b9150614b98826158b7565b604082019050919050565b6000614bb060268361561d565b9150614bbb82615906565b604082019050919050565b6000614bd360258361561d565b9150614bde82615955565b604082019050919050565b6000614bf6601c8361561d565b9150614c01826159a4565b602082019050919050565b6000614c19601b8361561d565b9150614c24826159cd565b602082019050919050565b6000614c3c60248361561d565b9150614c47826159f6565b604082019050919050565b6000614c5f60198361561d565b9150614c6a82615a45565b602082019050919050565b6000614c8260298361561d565b9150614c8d82615a6e565b604082019050919050565b6000614ca5602e8361561d565b9150614cb082615abd565b604082019050919050565b6000614cc860208361561d565b9150614cd382615b0c565b602082019050919050565b6000614ceb60208361561d565b9150614cf682615b35565b602082019050919050565b6000614d0e60188361561d565b9150614d1982615b5e565b602082019050919050565b6000614d31602f8361561d565b9150614d3c82615b87565b604082019050919050565b6000614d5460218361561d565b9150614d5f82615bd6565b604082019050919050565b6000614d77603d8361561d565b9150614d8282615c25565b604082019050919050565b6000614d9a60248361561d565b9150614da582615c74565b604082019050919050565b6000614dbd602f8361561d565b9150614dc882615cc3565b604082019050919050565b6000614de060238361561d565b9150614deb82615d12565b604082019050919050565b614dff816156e3565b82525050565b614e0e81615711565b82525050565b614e1d81615711565b82525050565b614e34614e2f82615711565b6157c0565b82525050565b6000614e468284614a89565b915081905092915050565b6000614e5d8285614b2c565b9150614e698284614b2c565b91508190509392505050565b6000614e818285614e23565b602082019150614e918284614b2c565b91508190509392505050565b6000602082019050614eb26000830184614885565b92915050565b6000608082019050614ecd6000830187614885565b614eda6020830186614885565b614ee76040830185614e14565b8181036060830152614ef98184614a50565b905095945050505050565b6000602082019050614f196000830184614a23565b92915050565b6000602082019050614f346000830184614a41565b92915050565b60006020820190508181036000830152614f548184614af3565b905092915050565b600060a0820190508181036000830152614f768188614af3565b9050614f856020830187614a41565b8181036040830152614f978186614894565b9050614fa66060830185614e14565b614fb36080830184614885565b9695505050505050565b60006040820190508181036000830152614fd78185614af3565b9050614fe66020830184614e14565b9392505050565b600060e0820190508181036000830152615007818a614af3565b90506150166020830189614e14565b818103604083015261502881886149c5565b9050818103606083015261503c8187614950565b9050818103608083015261505081866148f2565b905081810360a083015261506481856149c5565b905081810360c08301526150788184614894565b905098975050505050505050565b600060c08201905081810360008301526150a08189614af3565b90506150af6020830188614e14565b81810360408301526150c18187614af3565b90506150d06060830186614a41565b6150dd6080830185614e14565b6150ea60a0830184614885565b979650505050505050565b6000602082019050818103600083015261510e81614b5d565b9050919050565b6000602082019050818103600083015261512e81614b80565b9050919050565b6000602082019050818103600083015261514e81614ba3565b9050919050565b6000602082019050818103600083015261516e81614bc6565b9050919050565b6000602082019050818103600083015261518e81614be9565b9050919050565b600060208201905081810360008301526151ae81614c0c565b9050919050565b600060208201905081810360008301526151ce81614c2f565b9050919050565b600060208201905081810360008301526151ee81614c52565b9050919050565b6000602082019050818103600083015261520e81614c75565b9050919050565b6000602082019050818103600083015261522e81614c98565b9050919050565b6000602082019050818103600083015261524e81614cbb565b9050919050565b6000602082019050818103600083015261526e81614cde565b9050919050565b6000602082019050818103600083015261528e81614d01565b9050919050565b600060208201905081810360008301526152ae81614d24565b9050919050565b600060208201905081810360008301526152ce81614d47565b9050919050565b600060208201905081810360008301526152ee81614d6a565b9050919050565b6000602082019050818103600083015261530e81614d8d565b9050919050565b6000602082019050818103600083015261532e81614db0565b9050919050565b6000602082019050818103600083015261534e81614dd3565b9050919050565b600060208201905061536a6000830184614df6565b92915050565b60006020820190506153856000830184614e14565b92915050565b60006040820190506153a06000830185614e14565b6153ad6020830184614885565b9392505050565b600060a0820190506153c96000830188614e14565b81810360208301526153db8187614af3565b90506153ea6040830186614a41565b6153f76060830185614e14565b6154046080830184614885565b9695505050505050565b600060a0820190506154236000830188614e14565b6154306020830187614e14565b81810360408301526154428186614af3565b905081810360608301526154568185614af3565b90506154656080830184614a41565b9695505050505050565b600061547961548a565b9050615485828261578f565b919050565b6000604051905090565b600067ffffffffffffffff8211156154af576154ae615828565b5b6154b882615857565b9050602081019050919050565b600067ffffffffffffffff8211156154e0576154df615828565b5b6154e982615857565b9050602081019050919050565b6000819050602082019050919050565b6000819050602082019050919050565b6000819050602082019050919050565b6000819050602082019050919050565b600081519050919050565b600081519050919050565b600081519050919050565b600081519050919050565b600081519050919050565b600081519050919050565b6000602082019050919050565b6000602082019050919050565b6000602082019050919050565b6000602082019050919050565b600082825260208201905092915050565b600082825260208201905092915050565b600082825260208201905092915050565b600082825260208201905092915050565b600082825260208201905092915050565b600081905092915050565b600082825260208201905092915050565b600082825260208201905092915050565b600081905092915050565b600061564482615711565b915061564f83615711565b9250827fffffffffffffffffffffffffffffffffffffffffffffffffffffffffffffffff03821115615684576156836157ca565b5b828201905092915050565b600061569a826156f1565b9050919050565b60008115159050919050565b6000819050919050565b60007fffffffff0000000000000000000000000000000000000000000000000000000082169050919050565b600061ffff82169050919050565b600073ffffffffffffffffffffffffffffffffffffffff82169050919050565b6000819050919050565b82818337600083830152505050565b60005b8381101561574857808201518184015260208101905061572d565b83811115615757576000848401525b50505050565b6000600282049050600182168061577557607f821691505b60208210811415615789576157886157f9565b5b50919050565b61579882615857565b810181811067ffffffffffffffff821117156157b7576157b6615828565b5b80604052505050565b6000819050919050565b7f4e487b7100000000000000000000000000000000000000000000000000000000600052601160045260246000fd5b7f4e487b7100000000000000000000000000000000000000000000000000000000600052602260045260246000fd5b7f4e487b7100000000000000000000000000000000000000000000000000000000600052604160045260246000fd5b6000601f19601f8301169050919050565b7f4552433732313a2063616c6c6572206973206e6f7420746f6b656e206f776e6560008201527f72206f7220617070726f76656400000000000000000000000000000000000000602082015250565b7f4552433732313a207472616e7366657220746f206e6f6e20455243373231526560008201527f63656976657220696d706c656d656e7465720000000000000000000000000000602082015250565b7f4f776e61626c653a206e6577206f776e657220697320746865207a65726f206160008201527f6464726573730000000000000000000000000000000000000000000000000000602082015250565b7f4552433732313a207472616e736665722066726f6d20696e636f72726563742060008201527f6f776e6572000000000000000000000000000000000000000000000000000000602082015250565b7f4552433732313a20746f6b656e20616c7265616479206d696e74656400000000600082015250565b7f4552524f523a20546f6b656e20646f6573206e6f742065786973740000000000600082015250565b7f4552433732313a207472616e7366657220746f20746865207a65726f2061646460008201527f7265737300000000000000000000000000000000000000000000000000000000602082015250565b7f4552433732313a20617070726f766520746f2063616c6c657200000000000000600082015250565b7f4552433732313a2061646472657373207a65726f206973206e6f74206120766160008201527f6c6964206f776e65720000000000000000000000000000000000000000000000602082015250565b7f45524337323155524953746f726167653a2055524920736574206f66206e6f6e60008201527f6578697374656e7420746f6b656e000000000000000000000000000000000000602082015250565b7f4552433732313a206d696e7420746f20746865207a65726f2061646472657373600082015250565b7f4f776e61626c653a2063616c6c6572206973206e6f7420746865206f776e6572600082015250565b7f4552433732313a20696e76616c696420746f6b656e2049440000000000000000600082015250565b7f5461736b2077697468206964656e746963616c20494420616e6420544147532060008201527f616c726561647920657869737473210000000000000000000000000000000000602082015250565b7f4552433732313a20617070726f76616c20746f2063757272656e74206f776e6560008201527f7200000000000000000000000000000000000000000000000000000000000000602082015250565b7f4552433732313a20617070726f76652063616c6c6572206973206e6f7420746f60008201527f6b656e206f776e6572206f7220617070726f76656420666f7220616c6c000000602082015250565b7f4552524f523a2041646472657373206973206e6f74206f776e6572206f66207460008201527f6f6b656e00000000000000000000000000000000000000000000000000000000602082015250565b7f4552524f523a204c6573732066756e647320776572652073656e74207468616e60008201527f20746865206d696e742070726963650000000000000000000000000000000000602082015250565b7f4552524f523a204d6178696d756d20746f6b656e20737570706c79207265616360008201527f6865640000000000000000000000000000000000000000000000000000000000602082015250565b615d6a8161568f565b8114615d7557600080fd5b50565b615d81816156a1565b8114615d8c57600080fd5b50565b615d98816156ad565b8114615da357600080fd5b50565b615daf816156b7565b8114615dba57600080fd5b50565b615dc6816156e3565b8114615dd157600080fd5b50565b615ddd81615711565b8114615de857600080fd5b5056fea2646970667358221220fe8f55b126c9092ce34920130eb2e3f5a9bbea917b36c6ffa31bf1b613b408ae64736f6c6343000801003368747470733a2f2f6e667473746f726167652e6c696e6b2f697066732f6261667962656966707135327032786670707632626d6675746e6a7235776c666b79366c65783634367569797a67676274626d6f6a37336b61376d2f4f617468546f4d656c696f7269736d2e6a736f6e",
  "linkReferences": {},
  "deployedLinkReferences": {}
}